:100000000C94B9120C94E3120C94E3120C94E312C6
:100010000C94E3120C94E3120C94E3120C94E3128C
:100020000C94E3120C94E3120C940BD80C9488D823
:100030000C94E3120C94E3120C94E3120C94E3126C
:100040000C94E3120C9448890C94E3120C94E31280
:100050000C94E3120C94E3120C9406960C946AD759
:100060000C94E3120C94E3120C94E3120C94E3123C
:100070000C94E3120C94E3120C94E3120C94E3122C
:100080000C94E3120C94E3120C94E3120C94E3121C
:100090000C94E3120C94E312F9D425D547D547D537
:1000A00047D547D547D547D547D547D547D547D570
:1000B00047D547D53DD535D52DD547D547D547D596
:1000C00047D547D547D547D51FD505D50DD517D524
:1000D000084AD73B3BCE016E84BCBFFDC12F3D6CAF
:1000E00074319ABD56833DDA3D00C77F11BED9E415
:1000F000BB4C3E916BAAAABE000000803F05A84CF5
:10010000CDB2D44EB93836A9020C50B991868808C0
:100110003CA6AAAA2ABE000000803F004E414E49DC
:100120004E495459494E46CDCCCC3D0AD7233C17B5
:10013000B7D13877CC2B329595E6241FB14F0A0002
:100140000020410000C84200401C4620BCBE4CCAF2
:100150001B0E5AAEC59D742C2065793D0029202DBB
:100160003E202865783D002C2073793D0020436FA8
:100170006E6E656374696E67207769746820766552
:1001800072746963616C206C696E65202873783DB8
:10019000002C2065793D0029202D3E202865783DE2
:1001A000002C2073793D0020436F6E6E6563746987
:1001B0006E67207769746820686F72697A6F6E74F1
:1001C000616C206C696E65202873783D0046697803
:1001D0006564204C656E677468205072696D652E89
:1001E00000446F6E65205072696D696E6700446FE0
:1001F0006E65205072696D696E6700557365722D6A
:10020000436F6E74726F6C6C6564205072696D65BB
:10021000004732362048656174696E67204E6F7AF8
:100220007A6C652E004732362048656174696E67C6
:10023000204265642E004C656176696E6720473206
:1002400036002C2079693D00202020446F696E67BC
:1002500020636972636C652061743A202878693D77
:10026000003F53706563696669656420582C5920A6
:10027000636F6F7264696E617465206F7574206F4F
:100280006620626F756E64732E0A003F28522965DE
:10029000706561742076616C7565206E6F74207076
:1002A0006C61757369626C653B206D757374206257
:1002B00065206174206C6561737420312E0A003FE3
:1002C000537065636966696564206E6F7A7A6C65E0
:1002D0002074656D7065726174757265206E6F74DF
:1002E00020706C61757369626C652E0A003F5370F3
:1002F000656369666965642066696C616D656E74C5
:100300002073697A65206E6F7420706C61757369F3
:10031000626C652E0A003F537065636966696564A7
:10032000207072696D65206C656E677468206E6FF1
:100330007420706C61757369626C652E0A003F539E
:100340007065636966696564206E6F7A7A6C652092
:1003500073697A65206E6F7420706C617573696261
:100360006C652E0A003F52657472616374696F6E2A
:10037000204D756C7469706C696572206D7573744D
:10038000206265207370656369666965642E0A0082
:100390003F53706563696669656420526574726174
:1003A0006374696F6E204D756C7469706C696572E9
:1003B000206E6F7420706C61757369626C652E0AB3
:1003C000003F537065636966696564206C61796597
:1003D0007220686569676874206E6F7420706C6144
:1003E000757369626C652E0A003F537065636966B8
:1003F000696564206265642074656D7065726174FE
:10040000757265206E6F7420706C61757369626CB3
:10041000652E0A0047323620636F6D6D616E642071
:10042000737461727465642E2057616974696E67B4
:1004300020666F72206865617465722873292E0AC0
:1004400000696E206D6F76655F746F282920666580
:1004500065645F76616C756520666F722058593AE5
:10046000004C656176696E6720473236004D6573D2
:10047000682056616C69646174696F6E2053746F93
:10048000707065642E002020506C616E6E65724243
:10049000756666657242797465733A20002046720B
:1004A0006565204D656D6F72793A2000436F6D7000
:1004B000696C65643A204D617220313720323031E9
:1004C000380A00207C20417574686F723A20564CBF
:1004D0004144494D49522055444152545345560ACE
:1004E00000323031372D31322D32352031323A3031
:1004F0003000204C61737420557064617465643AF7
:100500002000312E312E380A004D61726C696E0068
:1005100020536F6674776172652052657365740A43
:1005200000205761746368646F6720526573657457
:100530000A002042726F776E206F757420526573C7
:1005400065740A002045787465726E616C2052658E
:100550007365740A00506F77657255700A00737482
:100560006172740A005072696E7465722068616C01
:100570007465642E206B696C6C28292063616C6C37
:100580006564210A004B494C4C45442E20004B49E0
:100590004C4C2063617573656420627920746F6FC1
:1005A000206D75636820696E616374697665207477
:1005B000696D65202D2063757272656E7420636F9E
:1005C0006D6D616E643A200020746F6F206C6F6EE9
:1005D0006720657874727573696F6E2070726576C6
:1005E000656E7465640A0020636F6C6420657874BE
:1005F000727573696F6E2070726576656E7465646E
:100600000A006F6B00526573656E643A20004E6F8E
:100610002063617365206C696768740A004F6666C1
:1006200073657473206170706C69656400457272E3
:100630003A20546F6F206661722100546F6F2066FC
:1006400061722066726F6D207265666572656E6399
:100650006520706F696E740A004D65736820706F55
:10066000696E742063616E6E6F74206265207265BE
:10067000736F6C7665640A004D34323120696E63A5
:100680006F727265637420706172616D65746572FA
:100690002075736167650A004F66660A00466164EB
:1006A00065204865696768742000426564204C6570
:1006B00076656C696E6720004661696C65642074BC
:1006C0006F20656E61626C6520426564204C6576C2
:1006D000656C696E670A004D657368204265642029
:1006E0004C6576656C20646174613A0A0043290A9E
:1006F0000061626C656420286D696E2074656D70A0
:100700002000436F6C642065787472756465732093
:10071000617265200020643A0020693A0020703A36
:100720000020633A0020643A0020693A0020703AC1
:1007300000205A00205900580020204D61783A20AE
:1007400000205A00205900580020204D696E3A20A0
:10075000004F6666004F6E2000536F667420656E12
:100760006473746F70733A200053657474696E67B4
:100770002054726176656C20416363656C657261BB
:1007800074696F6E3A200053657474696E67205205
:1007900065747261637420416363656C6572617432
:1007A000696F6E3A200053657474696E67205072E9
:1007B000696E7420416363656C65726174696F6E04
:1007C0003A200053657474696E67205072696E74C4
:1007D00020616E642054726176656C2041636365AC
:1007E0006C65726174696F6E3A20004D313435204A
:1007F000533C696E6465783E206F7574206F662087
:1008000072616E67652028302D31290A002F2F2054
:10081000003A004361703A00454D455247454E430A
:10082000595F50415253455200434153455F4C4933
:100830004748545F4252494748544E455353005429
:100840004F47474C455F4C494748545300534F4628
:1008500054574152455F504F574552004255494CFD
:10086000445F50455243454E54004C4556454C4913
:100870004E475F44415441005A5F50524F42450039
:100880004155544F4C4556454C005052494E545FCB
:100890004A4F420050524F4752455353004155541E
:1008A0004F5245504F52545F54454D5000564F4C97
:1008B000554D455452494300454550524F4D005304
:1008C000455249414C5F584F4E5F584F464600468F
:1008D00049524D574152455F4E414D453A4D617227
:1008E0006C696E20312E312E382028476974687566
:1008F000622920534F555243455F434F44455F554E
:10090000524C3A68747470733A2F2F676974687523
:10091000622E636F6D2F4D61726C696E4669726DE8
:10092000776172652F4D61726C696E2050524F5421
:100930004F434F4C5F56455253494F4E3A312E303C
:10094000204D414348494E455F545950453A534F15
:100950004C49444F4F444C45203320455854525540
:100960004445525F434F554E543A31205555494402
:100970003A63656465326132662D343161322D34FB
:100980003734382D396231322D633535633632666E
:1009900033363766660A00534F4C49444F4F444C38
:1009A000452033204F66662E0042656420646F6EDA
:1009B000652E0020573A00426564204865617469DD
:1009C0006E672E0048656174696E6720646F6E659E
:1009D0002E0020573A0045256920257300534F4CBF
:1009E00049444F4F444C4520332072656164792E51
:1009F000006F6B004D3131332053004B494C4C4557
:100A0000442E20004543484F00494E464F00455272
:100A1000524F52530044525952554E00434F4D4D80
:100A2000554E49434154494F4E006F666600040AD3
:100A3000090A0E0A150A1C0A44454255473A004560
:100A4000256920257300534F4C49444F4F444C4572
:100A500020332072656164792E006F66662E0A006D
:100A60006F6E2E0A0047323620446562756720009B
:100A700000011C1D13FF2F1E1F12FF142021112423
:100A8000FFFFFF0E10FFFFFF22230DFFFF0E260FBB
:100A9000FF27FFFFFFFFFFFF50726F7465637465F0
:100AA000642050696E0A002569730025696D202550
:100AB0006973002569682025696D20256973002503
:100AC0006964202569682025696D202569730025E2
:100AD000697920256964202569682025696D2025AC
:100AE0006973005072696E742074696D653A2000F4
:100AF0004E6F206D6F76652E00526573756D696E51
:100B000067207072696E7400534F4C49444F4F44D4
:100B10004C4520332072656164792E00436C696313
:100B20006B20746F20726573756D652E2E2E004DCF
:100B300065736820706F696E742063616E6E6F7488
:100B4000206265207265736F6C7665640A00206FA1
:100B50006620004D424C2047323920706F696E7418
:100B6000200059206F7574206F662072616E676572
:100B70002028312D33292E0A0058206F7574206FDC
:100B8000662072616E67652028312D33292E0A0098
:100B90004D6573682070726F62696E6720646F6E56
:100BA000652E0A005374617274206D65736820703D
:100BB000726F62696E6720776974682022473239E4
:100BC000205331222066697273742E0A004732382E
:100BD0000A473239205332004D65736820626564DC
:100BE000206C6576656C696E6720686173206E6F36
:100BF00020646174612E0A0053746174653A2000A8
:100C000053206F7574206F662072616E67652028AF
:100C1000302D35292E0A00536C6565702E2E2E005E
:100C200047322F47332062616420706172616D65C5
:100C3000746572730A00416374697665204578743F
:100C400072756465723A200020453A00205A3A00D5
:100C500020593A00583A000A4D656173757265640F
:100C600020706F696E74733A0A005A206F6666735B
:100C700065743A20004E756D20582C593A20332C5B
:100C8000330A00206E6F7420656E74657265642E81
:100C90000A005761726E696E673A20486F6D696E1F
:100CA000672042756D702044697669736F72203CCD
:100CB00020310A00020204627573793A207061756E
:100CC00073656420666F7220696E7075740A0062C5
:100CD0007573793A2070617573656420666F722050
:100CE000757365720A00627573793A2070726F636A
:100CF000657373696E670A00486F6D6520257325FB
:100D00007325732066697273740020666972737448
:100D10000A005A0059005800486F6D6520002049AC
:100D20006E76616C69642065787472756465722092
:100D3000004B494C4C45442E200053544F505045D5
:100D4000442E20005072696E7465722073746F7047
:100D50007065642064756520746F206572726F72AF
:100D6000732E2046697820746865206572726F72F0
:100D700020616E6420757365204D39393920746F98
:100D800020726573746172742E202854656D7065CD
:100D90007261747572652069732072657365742E53
:100DA00020536574206974206166746572207265D1
:100DB0007374617274696E67290A004E6F2043680C
:100DC00065636B73756D2077697468206C696E65F7
:100DD000206E756D6265722C204C617374204C69B5
:100DE0006E653A2000636865636B73756D206D698D
:100DF000736D617463682C204C617374204C696E50
:100E0000653A20004C696E65204E756D62657220F2
:100E10006973206E6F74204C617374204C696E6529
:100E2000204E756D6265722B312C204C61737420DD
:100E30004C696E653A20004D31313000656E717538
:100E4000657565696E672022000101FF0000A04002
:100E50000000A04000000040000051430000484353
:100E60000000484300001F4300001643000000003C
:100E700000005143000048430000484300000000C8
:100E8000000000000000000000004842000048424E
:100E90000000804000000000204400204900202085
:100EA0004D333034205000204C00204300204400BB
:100EB00020490020204D333031205000504944203B
:100EC00073657474696E67733A0A002046002042A5
:100ED0000020480020204D3134352053004D6174EE
:100EE000657269616C2068656174757020706172EB
:100EF000616D65746572733A0A00205A00205900CA
:100F00002020473239205333205800205A00202017
:100F10004D3432302053004D6573682042656420A3
:100F20004C6576656C696E673A0A00205A00205954
:100F30000020204D323036205800486F6D65206FFC
:100F400066667365743A0A00204500205A002059ED
:100F50000020580020420020540020204D3230351F
:100F6000205300416476616E6365643A20533C6DA2
:100F7000696E5F66656564726174653E20543C6DA0
:100F8000696E5F74726176656C5F666565647261D7
:100F900074653E20423C6D696E5F7365676D656E7A
:100FA000745F74696D655F75733E20583C6D617840
:100FB0005F78795F6A65726B3E205A3C6D61785F3D
:100FC0007A5F6A65726B3E20453C6D61785F655F54
:100FD0006A65726B3E0A0020540020520020204DAA
:100FE000323034205000416363656C65726174690E
:100FF0006F6E2028756E6974732F7332293A2050F2
:101000003C7072696E745F616363656C3E20523C34
:10101000726574726163745F616363656C3E2054D2
:101020003C74726176656C5F616363656C3E0A0057
:10103000204500205A0020590020204D3230312018
:1010400058004D6178696D756D20416363656C650D
:10105000726174696F6E2028756E6974732F7332B4
:10106000293A0A00204500205A0020590020204D2E
:101070003230332058004D6178696D756D2066659A
:10108000656472617465732028756E6974732F735B
:10109000293A0A00204500205A0020590020204DFE
:1010A0003932205800537465707320706572207552
:1010B0006E69743A0A0020204D3230302044300AE4
:1010C0000020204D3230302044002044697361629A
:1010D0006C65640A0046696C616D656E74207365A9
:1010E0007474696E67733A0020204D31343920439F
:1010F000203B20556E69747320696E2043656C73C4
:101100006975730A002020473231202020203B20BF
:10111000556E69747320696E206D6D0A00486172A6
:1011200064636F6465642044656661756C74205304
:10113000657474696E6773204C6F616465640A003E
:10114000282300002823000064000000102700006E
:101150000000FA430000FA430000A04000003442BF
:101160000000B0420000B04200C00D450000E64261
:10117000202863616C63756C6174656429210A00C1
:1011800020213D2000454550524F4D2043524320E1
:101190006D69736D61746368202D202873746F729C
:1011A0006564292000290A002062797465733B2058
:1011B00063726320002073746F72656420736574BA
:1011C00074696E67732072657472696576656420F0
:1011D0002800204D61726C696E3D563437290A0033
:1011E00028454550524F4D3D00454550524F4D20EA
:1011F00076657273696F6E206D69736D6174636873
:101200002000290A002062797465733B20637263B1
:10121000200053657474696E67732053746F726530
:10122000642028004572726F722077726974696E4B
:101230006720746F20454550524F4D210A007A5F58
:101240006D696E3A2000795F6D61783A2000785FB1
:101250006D61783A20005265706F7274696E672014
:10126000656E6473746F70207374617475730A00B3
:10127000456E6473746F7073202563202563202589
:101280006320256300205A3A0020593A0020583A3A
:1012900000656E6473746F7073206869743A20001F
:1012A000556E6B6E6F776E20636F6D6D616E643A15
:1012B00020220020746F6F206C6F6E672065787439
:1012C000727573696F6E2070726576656E74656491
:1012D0000A0020636F6C6420657874727573696F9F
:1012E0006E2070726576656E7465640A0065636869
:1012F0006F3A004572726F723A00205A3A002059D4
:101300003A0020436F756E7420583A0024F4D430AC
:1013100050C38E20C2A24017828B7011127A910D99
:10132000816CD90AA861E108C75866076151430674
:101330001E4B5D05C145A7041A411104093D9803E0
:10134000713931034036DB0265339102D4305402E7
:10135000802E1D02632CEE01752AC501B028A00164
:10136000102781018F2564012B244B01E0223401D9
:10137000AC211F018D200D01801FFC00841EED009B
:10138000971DDF00B81CD200E61BC600201BBC0066
:10139000641AB200B219A8000A19A0006A189900CC
:1013A000D117910040178B00B516840031167E00CE
:1013B000B31579003A157300C7146F0058146A000A
:1013C000EE1366008813630025135E00C7125B00EE
:1013D0006C12570015125400C111510070114F00CA
:1013E00021114B00D61049008D10470046104400D3
:1013F00002104200C00F4000800F3E00420F3C0030
:10140000060F3B00CB0E3800930E37005C0E350004
:10141000270E3400F30D3200C10D3100900D300065
:10142000600D2E00320D2D00050D2C00D90C2B0067
:10143000AE0C2900850C29005C0C2700350C270018
:101440000E0C2600E80B2400C40B2400A00B230084
:101450007D0B23005A0B2100390B2100180B2000B3
:10146000F80A1F00D90A1E00BB0A1E009D0A1D00B3
:10147000800A1D00630A1C00470A1B002C0A1B007F
:10148000110A1A00F7091A00DD091900C409190028
:10149000AB091900920917007B09180063091700AE
:1014A0004C09160036091600200916000A09150015
:1014B000F5081500E0081400CC081400B808140062
:1014C000A4081400900813007D0812006B08130094
:1014D00058081200460812003408110023081100B1
:1014E0001208110001081100F0071000E0071000B9
:1014F000D0071000C0071000B0070F00A1071000B0
:1015000091070E0083070F0074070F0065070E0098
:1015100057070E0049070E003B070D002E070E006F
:1015200020070D0013070D0006070D00F9060C003B
:10153000ED060D00E0060C00D4060C00C8060C00F9
:10154000BC060C00B0060C00A4060B0099060C00AB
:101550008D060B0082060B0077060B006C060B0055
:1015600061060A0057060B004C060A0042060A00F4
:1015700038060A002E060A0024060A001A060A0087
:101580001006090007060A00FD050900F405090018
:10159000EB050900E2050900D9050900D00509009D
:1015A000C7050900BE050900B5050800AD0508001E
:1015B000A50509009C050800940508008C05080095
:1015C000840508007C050800740508006C05070008
:1015D000650508005D050700560508004E05070073
:1015E00047050700400508003805070031050700DA
:1015F0002A050700230507001C050600160507003D
:101600000F0507000805060002050700FB04060099
:10161000F5040700EE040600E8040600E2040700F3
:10162000DB040600D5040600CF040600C90406004A
:10163000C3040600BD040600B7040600B10405009B
:10164000AC040600A6040600A00405009B040600E6
:1016500095040500900406008A0405008504050031
:10166000800406007A040500750405007004050076
:101670006B04050066040500610405005C040500B8
:1016800057040500520405004D04050048040500F8
:10169000430405003E0404003A0405003504050037
:1016A000300404002C040500270404002304050072
:1016B0001E0404001A0404001604050011040400AA
:1016C0000D040400090405000404040000040400DF
:1016D000FC030400F8030400F4030400F003040016
:1016E000EC030400E8030400E4030400E003040046
:1016F000DC030400D8030400D4030400D003040076
:10170000CC030400C8030300C503030024F404D978
:10171000201BC40C5C0E9804C4095F0265077101AC
:10172000F405F900FB04B30048048700C103690015
:101730005803550003034500BE023A0084023100FD
:1017400053022A002902250004022000E4011C00A3
:10175000C8011900AF01170098011400840113009B
:10176000710110006101100051010E0043010D00D4
:1017700036010B002B010B0020010B0015010900A5
:101780000C01090003010800FB000800F300080039
:10179000EB000700E4000600DE000600D8000600AB
:1017A000D2000600CC000500C7000500C2000500FD
:1017B000BD000400B9000400B5000400B10004003D
:1017C000AD000400A9000400A5000300A20003006E
:1017D0009F0004009B000300980003009500020096
:1017E00093000300900003008D0002008B000300B3
:1017F00088000200860002008400030081000200CD
:101800007F0002007D0002007B00020079000200E0
:1018100077000100760002007400020072000100EF
:10182000710002006F0002006D0001006C000200F8
:101830006A00010069000200670001006600010003
:101840006500010064000200620001006100010007
:10185000600001005F0002005D0001005C0001000B
:101860005B0001005A00010059000100580001000E
:10187000570001005600010055000100540001000E
:10188000530000005300010052000100510001000C
:10189000500001004F0001004E0000004E0001000A
:1018A0004D0001004C0001004B0000004B00010006
:1018B0004A00010049000100480000004800010002
:1018C00047000100460000004600010045000000FE
:1018D00045000100440001004300000043000100F6
:1018E00042000000420001004100000041000100F0
:1018F000400001003F0000003F0001003E000000EA
:101900003E0001003D0000003D0001003C000000E1
:101910003C0000003C0001003B0000003B000100D7
:101920003A0000003A0001003900000039000100CF
:1019300038000000380000003800010037000000C7
:1019400037000100360000003600000036000100BC
:1019500035000000350000003500010034000000B3
:1019600034000000340001003300000033000000A8
:10197000330001003200000032000000320001009C
:101980003100000031000000310001003000000093
:1019900030000000300001002F0000002F00000088
:1019A0002F0000002F0001002E0000002E0000007C
:1019B0002E0001002D0000002D0000002D00000071
:1019C0002D0001002C0000002C0000002C00000065
:1019D0002C0001002B0000002B0000002B00000059
:1019E0002B0001002A0000002A0000002A0000004D
:1019F0002A00010029000000290000002900000041
:101A00002900000029000100280000002800000033
:101A10002800000028000000280001002700000026
:101A20002700000027000000270000002700010019
:101A3000260000002600000026000000260000000E
:101A40002600010025000000250000002500000000
:101A500025000000250000002500010024000000F2
:101A600024000000240000002400000024000100E5
:101A700023000000230000002300000023000000DA
:101A800023000000230000002300010022000000CA
:101A900022000000220000002200000022000000BE
:101AA00022000100210000002100000021000000B0
:101AB00021000000210000002100000021000100A1
:101AC0002000000020000000200000002000000096
:101AD0002000000020000000200000002000010085
:101AE0001F0000001F0000001F0000001F0000007A
:101AF0001F0000001F0000001F0001001E0000006A
:101B00001E0000001E0000001E0000002042403A9F
:101B10000020403A00202F00546865726D616C20EF
:101B200052756E6177617900544845524D414C20A1
:101B300052554E41574159004B494C4C45442E207B
:101B400000202D20496E76616C696420657874727E
:101B500075646572206E756D62657220210A004899
:101B6000656174696E67206661696C6564004865CB
:101B70006174696E67206661696C656400486561BF
:101B800074696E67206661696C656400486561749C
:101B9000696E67206661696C6564004D494E544505
:101BA0004D50207472696767657265640045727292
:101BB0003A204D494E54454D50204245440045720F
:101BC000723A204D494E54454D50004D41585445B0
:101BD0004D50207472696767657265640045727262
:101BE0003A204D415854454D5020424544004572DD
:101BF000723A204D415854454D50006265640A00C8
:101C00002C2073797374656D2073746F70706564C4
:101C100021204865617465725F49443A20004B6435
:101C2000200023646566696E652020444546415561
:101C30004C545F004B69200023646566696E652023
:101C40002044454641554C545F004B7020002364AE
:101C50006566696E65202044454641554C545F00D9
:101C6000504944204175746F74756E652066696EC5
:101C70006973686564212050757420746865206CF0
:101C8000617374204B702C204B6920616E64204B73
:101C90006420636F6E7374616E74732066726F6D0F
:101CA0002062656C6F7720696E746F20436F6E667B
:101CB000696775726174696F6E2E680A00504944D5
:101CC000204175746F74756E65206661696C65641A
:101CD000212074696D656F75740A00546865726DB2
:101CE000616C2052756E6177617900544845524DA0
:101CF000414C2052554E4157415900486561746925
:101D00006E67206661696C65640048656174696E20
:101D100067206661696C65640050494420417574B0
:101D20006F74756E65206661696C65642120546509
:101D30006D706572617475726520746F6F2068696B
:101D400067680A00204B643A2000204B693A200063
:101D5000204B703A20000A20436C61737369632042
:101D6000504944200A002054753A2000204B753A0F
:101D70002000206D61783A2000206D696E3A2000C5
:101D800020643A200020626961733A200010005EEE
:101D900001C001FA00F001F5003002F0007002EB22
:101DA00000A002E600C002E1001003DC005003D7EF
:101DB00000E003D2007004CD00E004C800E005BEDE
:101DC000006006B9004007AA00F008A000700B965A
:101DD00000F00D8C00E0108200E0137800F0176E28
:101DE00000D0196900701B6400401E5F0010205A6B
:101DF00000F025500080294600D0303C00A032374A
:101E0000001035320020392D0020392800703A2387
:101E100000A03B1E00A03C1900203D1600003F031F
:101E200000F03F000046696C2E204469612E004698
:101E3000696C2E204469612E004520696E206D6D0D
:101E400033004F6666004F6E2000436F6E74726FF2
:101E50006C0053746570732F6D6D004A65726B0072
:101E6000416363656C65726174696F6E0056656C81
:101E70006F6369747900436F6E74726F6C004573A1
:101E8000746570732F6D6D004573746570732F6D7D
:101E90006D005A73746570732F6D6D005A7374659D
:101EA00070732F6D6D005973746570732F6D6D00B5
:101EB0005973746570732F6D6D005873746570730A
:101EC0002F6D6D005873746570732F6D6D004D6FBD
:101ED00074696F6E0056652D6A65726B0056652DCC
:101EE0006A65726B0056652D6A65726B00567A2DB5
:101EF0006A65726B00567A2D6A65726B0056792D91
:101F00006A65726B0056792D6A65726B0056792D81
:101F10006A65726B0056782D6A65726B0056782D73
:101F20006A65726B0056782D6A65726B004D6F742E
:101F3000696F6E00416D6178204500416D617820C8
:101F40004500416D6178205A00416D6178205A004A
:101F5000416D6178205900416D6178205900416DD3
:101F60006178205800416D6178205800412D7472CD
:101F70006176656C00412D74726176656C00412D4F
:101F80007265747261637400412D7265747261636D
:101F90007400416363656C00416363656C004D6F61
:101FA00074696F6E005654726176206D696E0056CA
:101FB00054726176206D696E005654726176206DA0
:101FC000696E00566D696E00566D696E00566D69DA
:101FD0006E00566D6178204500566D617820450091
:101FE000566D6178204500566D6178205A00566D17
:101FF0006178205A00566D6178205A00566D6178DC
:10200000205900566D6178205900566D617820592D
:1020100000566D6178205800566D61782058005642
:102020006D61782058004D6F74696F6E0053746F46
:1020300072652073657474696E677300426564002D
:1020400042656400426564004E6F7A7A6C65004EAA
:102050006F7A7A6C65004E6F7A7A6C650046616EB5
:102060002073706565640046616E207370656564F9
:102070000046616E2073706565640054656D70651F
:102080007261747572650050726568656174204193
:10209000425320636F6E66005072656865617420FC
:1020A000504C4120636F6E66005049442D430050F0
:1020B00049442D43005049442D43005049442D4488
:1020C000005049442D44005049442D490050494492
:1020D0002D49005049442D50005049442D500020B6
:1020E0000220466163740020022046616374002070
:1020F00002204D6178002002204D617800200220EE
:102100004D6178002002204D696E002002204D694B
:102110006E002002204D696E004175746F74656D0C
:1021200070004F6666004F6E200046616E2073702F
:102130006565640046616E20737065656400466184
:102140006E207370656564004265640042656400DA
:102150004E6F7A7A6C65004E6F7A7A6C6500436FC9
:102160006E74726F6C00496E697469616C697A652E
:1021700020454550524F4D00436F6E74726F6C0096
:10218000496E697469616C697A6520454550524FA2
:102190004D00526573746F7265206661696C73617E
:1021A0006665004C6F61642073657474696E677353
:1021B0000053746F72652073657474696E67730081
:1021C00046696C616D656E74004D6F74696F6E0069
:1021D00054656D7065726174757265004D61696EEC
:1021E000004578747275646572004D6F7665205A8B
:1021F000004D6F76652059004D6F76652058005070
:10220000726570617265004D6F766520302E316D9C
:102210006D004D6F766520316D6D004D6F766520D8
:1022200031306D6D004D6F766520617869730045C2
:1022300078747275646572004D6F7665205A004D32
:102240006F76652059004D6F76652058004578748B
:102250007275646572004D6F7665205A004D6F7619
:10226000652059004D6F766520580050726568658D
:10227000617420414253005072656865617420505A
:102280004C4100436F6F6C646F776E0044697361FB
:10229000626C65207374657070657273004D3834BC
:1022A0000053657420686F6D65206F666673657492
:1022B0007300426564204C6576656C696E67004703
:1022C00032380A473239004175746F20686F6D6586
:1022D00000473238004D6F76652061786973004D94
:1022E00061696E00507265686561742041425320D7
:1022F00042656400507265686561742041425320F4
:10230000456E6400507265686561742041425300F7
:102310005072657061726500507265686561742005
:10232000504C4120426564005072656865617420BC
:10233000504C4120456E64005072656865617420A0
:10234000504C41005072657061726500466C6F7749
:1023500000466C6F770046616E207370656564009F
:1023600046616E2073706565640046616E2073700F
:102370006565640042656400426564004E6F7A7A68
:102380006C65004E6F7A7A6C650053706565640009
:102390005370656564005370656564004D61696ED6
:1023A000004D34323800436F6E74726F6C0050729F
:1023B00065706172650054756E6500496E666F20C8
:1023C00073637265656E000025753A2530327500BD
:1023D000253032753A25303275005A0059005800C0
:1023E000040E1F041C000000000E1315110E000047
:1023F0001C10181705060500040A0A0A0A11110E16
:102400000C12120C00000000001F1511151F000017
:10241000506C656173652072657365740050524934
:102420004E5445522048414C54454400012902294C
:10243000042908291029202940298029012C022C4F
:10244000012602260426082610262026402680265D
:10245000402C802C01230223042308231023202353
:102460004023802301200220042008201020202067
:1024700040208020102C202C012F022F042F082F09
:10248000102F202F402F802F7EFE7EFD7EFB7EF7BB
:102490007EEF7EDF7EBF7E7F0001000049251200B7
:1024A0000200000625430003000002250401030981
:1024B00004E8241802030904D0241603030904C203
:1024C000240C0C03310032003300340035000000CE
:1024D00016035500530042002000530065007200AF
:1024E000690061006C00000018035400650065007D
:1024F0006E00730079006400750069006E006F0063
:1025000000000403090409024300020100C032096B
:10251000040000010202010005240010010524014D
:1025200000010424020605240600010705820308B1
:10253000004009040100020A0000000705030240F0
:1025400000000705840240000012010002020000A2
:1025500020C01683040001010203010001C1020131
:10256000803601813600F7409B69636B6E8103A75B
:10257000CEDB11241FBECFEFD0E2DEBFCDBF12E015
:10258000A0E0B1E0ECE9F0ED01E00BBF02C0079084
:102590000D92A03AB107D9F72EE0A0EAB2E001C04F
:1025A0001D92A933B207E1F712E1C9EBD2E104C0F1
:1025B0002197FE010E946FDCC33BD107C9F70E943F
:1025C0007ED40C944CE80C940000CF92DF92EF92F2
:1025D000FF92CF93DF936B017C01EA012FE632E19A
:1025E00043E85AEB0E9474DF87FD23C022E430E009
:1025F00041E553E4C701B6010E9471DD1816CCF025
:10260000C880D980EA80FB802FE632E143E85AEBAC
:10261000C701B6010E9474DF87FD0BC0C1E022E450
:1026200030E048E453E4C701B6010E9471DD18169A
:102630000CF4C0E08C2FDF91CF91FF90EF90DF90F2
:10264000CF900895CF93DF931F92CDB7DEB7698304
:10265000DC01ED91FC910280F381E02D41E050E03E
:10266000BE016F5F7F4F09950F90DF91CF91089565
:1026700080E1E1EAF5E0A1E9B5E001900D928A95EB
:10268000E1F7089581548A3150F5482F50E0FA015E
:1026900093E0F595E7959A95E1F7E752FA4F208197
:1026A00030E08770B90102C0759567958A95E2F7A9
:1026B00060FF15C0FA01E154FA4F2081222339F05E
:1026C0008091E4059091E505820F911D02C080E0A4
:1026D00090E09093E1058093E00581E0089580E02B
:1026E0000895D0DF882341F081E02091E00530910A
:1026F000E105232B09F480E008950F931F93CF93F6
:102700008091E0059091E105009711F1FC018F01A6
:10271000C1912C2F2F7DA9F0C53411F0C536B9F722
:10272000F801108260E070E08091E0059091E10591
:102730000E94CEE0F801C083562F472F382F292F53
:102740000BC060E070E0CF911F910F910C94CEE030
:1027500050E040E030E020E0652F742F832F922F6F
:10276000CF911F910F9108958091E0059091E1051F
:10277000009731F04AE050E060E070E00C9434E201
:1027800060E070E0CB0108958091E0059091E10553
:10279000892B11F481E00895E7DF97FD0BC0E4DF9A
:1027A0006F3F71058105910509F0A4F7DDDF81E038
:1027B000611101C080E00895CF930E94EDA6C82F5B
:1027C000882349F063E68DE694E00E9462A40E94AB
:1027D0004E9D0E94F3A68C2FCF9108956FEF81E656
:1027E00094E00E9462A40E94F3A681E00895CF9233
:1027F000DF92EF92FF92C0902501D0902601E090E9
:102800002701F0902801FC0180819181A281B38190
:102810008093250190932601A0932701B09328016E
:102820000E94B84BC0922501D0922601E092270168
:10283000F0922801FF90EF90DF90CF9008952F92B3
:102840003F924F925F926F927F928F929F92AF9240
:10285000BF92CF92DF92EF92FF920F931F93CF938D
:10286000DF9300D000D01F92CDB7DEB77C018B0183
:102870006A0119018090A1059090A205A090A3057E
:10288000B090A405A5019401FC0160817181828151
:1028900093810E9471DDF1E0FD83811112C02091CE
:1028A000A5053091A6054091A7055091A805F8010E
:1028B00060817181828193810E9471DD811101C0EB
:1028C0001D82F60140805180628073802091040156
:1028D000309105014091060150910701C301B201F9
:1028E0000E9471DD882309F455C040920401509282
:1028F0000501609206017092070120E030E040E49B
:1029000050E46091E4067091E5068091E6069091AE
:10291000E7060E9478DD69837A838B839C838092AB
:10292000910590929205A0929305B09294058091A2
:10293000A5059091A605A091A705B091A805809343
:10294000950590939605A0939705B0939805F60189
:1029500080819181A281B3818093990590939A059A
:10296000A0939B05B0939C058091AD059091AE0519
:10297000A091AF05B091B00580939D0590939E0501
:10298000A0939F05B093A005CE01019630DF0E9471
:10299000B6896EDEFD81FF2331F14090DC06509058
:1029A000DD066090DE067090DF068090E006909075
:1029B000E106A090E206B090E306A5019401C301F0
:1029C000B2010E9471DD20E030E040E251E487FF77
:1029D00005C0C301B2010E9478DD13C0C501B40176
:1029E0000E9478DD0EC020E030E040EC5FE36091B3
:1029F000E8067091E9068091EA069091EB060E9444
:102A000078DD69837A838B839C832091B2052223AE
:102A100051F0AB01BC0181E494E00E94D7816AE0EF
:102A20008DE29EE00FDEF70180819181A281B3816A
:102A30008093910590939205A0939305B09394058C
:102A4000F80180819181A281B38180939505909353
:102A50009605A0939705B0939805F10120813181E7
:102A60004281538160919D0570919E0580919F05E3
:102A70009091A0050E9498DC60939D0570939E053F
:102A800080939F059093A005CE010196B0DE0E9431
:102A9000B689EEDD0F900F900F900F900F90DF91A1
:102AA000CF911F910F91FF90EF90DF90CF90BF904B
:102AB000AF909F908F907F906F905F904F903F90DE
:102AC0002F900895CF93DF9300D000D0CDB7DEB71D
:102AD0002091BD0221111AC021E02093BD02409136
:102AE000B5025091B6026091B7027091B802705869
:102AF00049835A836B837C83AC01485F5F4FBC0181
:102B00006C5F7F4F9E012F5F3F4F99DE0F900F90BC
:102B10000F900F90DF91CF9108950F931F93CF9354
:102B2000DF9300D000D0CDB7DEB72091BD022223C5
:102B300001F18C012AE939E949E95FE36091B502C5
:102B40007091B6028091B7029091B8020E94AFDFF7
:102B500069837A838B839C83A801485F5F4FB801A8
:102B60006C5F7F4F9E012F5F3F4FC80168DE109260
:102B7000BD020F900F900F900F90DF91CF911F919A
:102B80000F910895CF92DF92EF92FF92CF93DF9350
:102B900000D000D0CDB7DEB78091A0028F3F09F002
:102BA0006DC081E08093160E63E68BEF91E00E948A
:102BB00062A40E94ECA65CDD81E995E0AEDFC12C49
:102BC000D12C76010E94EDA6811145C00E94ECA691
:102BD00020E030E040E85EE360919D0570919E0545
:102BE00080919F059091A0050E9498DC60939D05BF
:102BF00070939E0580939F059093A00520E030E0A0
:102C000040E85EE3C701B6010E9498DC6B017C01DD
:102C100020E030E84CEC53E40E9474DF87FF6DC085
:102C200020E030E040E751E46091E8067091E90669
:102C30008091EA069091EB060E9478DD69837A83A1
:102C40008B839C83CE010196D2DD0E94B68910DD74
:102C50000E940A44B7CF0E94F3A66EEE71E085E5AC
:102C600091E00E949AE463E681EE91E00E9462A402
:102C70000E944E9D1092160E80E040C063E68DECDF
:102C800091E00E9462A40E944E9DF2DC2091AD0270
:102C90003091AE024091AF025091B00260919D051B
:102CA00070919E0580919F059091A0050E9498DCEF
:102CB00060939D0570939E0580939F059093A0055A
:102CC00020E030E040E751E46091E8067091E906C9
:102CD0008091EA069091EB060E9478DD69837A8301
:102CE0008B839C83CE01019682DD0E94B689C0DC75
:102CF00081E995E0E7DE80E001C081E00F900F9070
:102D00000F900F90DF91CF91FF90EF90DF90CF90D9
:102D100008952F923F924F925F926F927F928F927F
:102D20009F92AF92BF92CF92DF92EF92FF920F935A
:102D30001F93CF93DF93CDB7DEB7A0970FB6F8946C
:102D4000DEBF0FBECDBF9D8F8C8F7F8F6E8F23EF29
:102D500035E03A87298700E010E03FEF38878FEFB2
:102D60008F839FEF9B8BAFE4AC8BB3ECBD8BE7E421
:102D7000EE8B81E090E0002E02C0880F991F0A942C
:102D8000E2F79B8F8A8FA2E0B3E0BA8BA98BE7EEC4
:102D9000F5E0FC87EB87312C08A3A989BA898D91CE
:102DA0009D91BA8BA98BEA8DFB8D8E239F23892B56
:102DB00009F0C1C0A985BA85CD90DD90ED90FC9059
:102DC000AB85BC858D919D910D90BC91A02D8D877B
:102DD0009E87AF87B88BA7019601EC8DFD8D608132
:102DE0007181828193810E9497DC2B013C012D85AA
:102DF0003E854F855889AE8DBF8D6D917D918D91AA
:102E00009C910E9497DC4B015C01A3019201C301DC
:102E1000B2010E94AFDF2B013C01A5019401C50165
:102E2000B4010E94AFDF9B01AC01C301B2010E945B
:102E300098DC0E941CE04B015C01A70196016091A7
:102E4000A9027091AA028091AB029091AC020E94FB
:102E500097DC6B017C012D853E854F8558896091FB
:102E6000A5027091A6028091A7029091A8020E94EB
:102E700097DC2B013C01A7019601C701B6010E9416
:102E8000AFDF6B017C01A3019201C301B2010E947B
:102E9000AFDF9B01AC01C701B6010E9498DC0E9424
:102EA0001CE020E030E040E751E40E9478DD9B0127
:102EB000AC01C501B4010E9498DC6B017C018090DB
:102EC000BE029090BF02A090C002B090C10220E06C
:102ED00030E040E85FE3C501B4010E9474DF1816DA
:102EE000ACF4C501B4010E94E0DD9B01AC0160E0DF
:102EF00070E0CB010E945DD40E9413DE9B01AC0107
:102F0000B601C7010E9498DC6B017C012B893C89CA
:102F10004D895E89B601C7010E9471DD87FF0BC034
:102F2000B8A1B8873F822C2CDF8AE88EF98ECB8A35
:102F3000DC8AED8AFE8A3394EB85FC853496FC8727
:102F4000EB87F3E03F1229CF0F5F1F4F29853A85AA
:102F50002C5F3F4F3A8729870330110509F009CFCD
:102F60002F81E22FF0E0EE0FFF1FEE5FFC4F81E0BC
:102F700090E0088402C0880F991F0A94E2F720812C
:102F80003181822B932B91838083822D9F89A88D01
:102F9000B98D8B839C83AD83BE83422D5C816D8113
:102FA0007E8128853F8180E090E0A0960FB6F8945E
:102FB000DEBF0FBECDBFDF91CF911F910F91FF906C
:102FC000EF90DF90CF90BF90AF909F908F907F90C9
:102FD0006F905F904F903F902F9008952F923F9267
:102FE0004F925F926F927F928F929F92AF92BF9219
:102FF000CF92DF92EF92FF920F931F93CF93DF93C5
:10300000CDB7DEB7A6970FB6F894DEBF0FBECDBF23
:103010009A8789871B01588B4F873A8B298B1C8B8A
:103020000B8BFE8EED8EC090A105D090A205E09096
:10303000A305F090A405DC018D919D910D90BC91AC
:10304000A02D8B879C87AD87BE879C01AD01C701F2
:10305000B6010E9497DC2B013C018091A50590915F
:10306000A605A091A705B091A8058D8B9E8BAF8B6F
:10307000B88FD1018D919D910D90BC91A02D898F1C
:103080009A8FAB8FBC8F9C01AD016D897E898F8932
:10309000988D0E9497DC4B015C01A3019201C30152
:1030A000B2010E94AFDF2B013C01A5019401C501D3
:1030B000B4010E94AFDF9B01AC01C301B2010E94C9
:1030C00098DC6F8F78A389A39AA3E989FA89408055
:1030D000518062807380A3019201C701B6010E94F2
:1030E00097DC6BA37CA38DA39EA3D8018D909D90AC
:1030F000AD90BC90A50194016D897E898F89988DD2
:103100000E9497DC6B017C012B853C854D855E859B
:10311000C301B2010E9497DC2B013C01298D3A8D3D
:103120004B8D5C8DC501B4010E9497DC4B015C01A5
:10313000A3019201C301B2010E94AFDF2B013C0148
:10314000A5019401C501B4010E94AFDF9B01AC0150
:10315000C301B2010E9498DC0E941CE04B015C019B
:103160002BA13CA14DA15EA1CA01B9010E94AFDF14
:103170002B013C01A7019601C701B6010E94AFDFF8
:103180009B01AC01C301B2010E9498DC2F8D38A1D4
:1031900049A15AA10E9471DD87FF18C020E030E0EC
:1031A00040EA50E4C501B4019F770E9474DF18160D
:1031B0006CF4EF84F888810129853A854D8D5E8D08
:1031C0006B897C8989899A8909DF83C020E030E096
:1031D00040E050E46F8D78A189A19AA10E9474DF2C
:1031E00018160CF042C081E995E06CDC19821A8255
:1031F0001B821C8220E030E040E05FE36091A90583
:103200007091AA058091AB059091AC050E9498DC65
:103210006D837E838F8398879E012F5F3F4FAE0122
:103220004B5F5F4F65EA75E081EA95E008DB198244
:103230001A821B821C8220E030E040E05FE3EF85D1
:10324000F88960817181828193810E9498DC6D830D
:103250007E838F8398879E012F5F3F4FAE014B5F28
:103260005F4FB10189859A85EADA19821A821B8239
:103270001C829E012F5F3F4F4F855889B101898580
:103280009A85DDDA209108013091090140910A0107
:1032900050910B01C501B4010E94AFDF2091B9022A
:1032A0003091BA024091BB025091BC020E94AFDF44
:1032B00069837A838B839C8381E995E02EDC9E0170
:1032C0002F5F3F4F4D8D5E8D6B897C8989899A89EF
:1032D000B6DAA6960FB6F894DEBF0FBECDBFDF916B
:1032E000CF911F910F91FF90EF90DF90CF90BF9003
:1032F000AF909F908F907F906F905F904F903F9096
:103300002F9008952F923F924F925F926F927F92EB
:103310008F929F92AF92BF92CF92DF92EF92FF92E5
:103320000F931F93CF93DF93CDB7DEB7A3970FB65D
:10333000F894DEBF0FBECDBF23EF35E03E8F2D8F5B
:10334000212C312C21E030E0022C02C0220F331F4F
:103350000A94E2F73A8B298B3FEF231A330A81E074
:1033600090E0022C02C0880F991F0A94E2F79BA3F9
:103370008AA3A2ECB2E0B88FAF8BE2E0F3E0F8A34F
:10338000EF8F22EE32E03A8F298F87EE95E09C8F07
:103390008B8F12DA89A3811159C28F8D98A19C8BD2
:1033A0008B8BDC018D919C9129893A8928233923C3
:1033B000232B09F486C0EAA1FBA18E239F23892B2E
:1033C00009F47FC0A98DBA8D8D919C91E989FA8904
:1033D0008E239F23892B09F074C020E030E040E069
:1033E00050E4AD8DBE8D6D917D918D919C910E942B
:1033F00098DC6B017C0120E030E040E050E4ED8D92
:10340000FE8D64817581868197810E9497DC2B01F6
:103410003C0120E030E040E85FE3C701B6010E94D4
:1034200071DD87FF13C1C12CD12CB0E8EB2EBFE3B7
:10343000FB2ECD86DE86EF86F88AAB8DBC8D8D9017
:103440009D90AD90BC9020E030E040E85FE3C50186
:10345000B4010E9471DD87FF0BC1812C912CF0E833
:10346000AF2EFFE3BF2E89829A82AB82BC8289860F
:103470009A86AB86BC8620E030E040E85FE3C3017B
:10348000B2010E9471DD87FF05C1412C512C70E80B
:10349000672E7FE3772E4D825E826F827886AE0143
:1034A000475F5F4FC701B60190D8811105C1E98D13
:1034B000FA8D8081918129893A89822B932B91837E
:1034C00080838F8D98A1029698A38F8FAB89BC893A
:1034D0008D919C91E989FA898E239F23892B09F488
:1034E00096C0AF8DB8A18D919C918E239F23892B7F
:1034F00009F48DC0AF89B88D8D919C91E989FA89C5
:103500008E239F23892B09F082C020E030E040E029
:1035100050E4EB8DFC8D60817181828193810E94EA
:1035200098DC6B8B7C8B8D8B9E8B20E030E040E0B9
:1035300050E4AB8DBC8D14966D917D918D919C91D5
:1035400017970E9497DC2B013C01ED8DFE8DC0800A
:10355000D180E280F38020E030E040E85FE3C70103
:10356000B6010E9471DD87FFEFC0C12CD12C40E86D
:10357000E42E4FE3F42ECD82DE82EF82F886CD86F4
:10358000DE86EF86F88A20E030E040E85FE36B8972
:103590007C898D899E890E9471DD87FFE7C080E06C
:1035A00090E0A0E8BFE38B8B9C8BAD8BBE8B8B89AF
:1035B0009C89AD89BE8989879A87AB87BC8720E0C3
:1035C00030E040E85FE3C301B2010E9471DD87FF94
:1035D000E3C0412C512C20E8622E2FE3722E498249
:1035E0005A826B827C82AE01475F5F4FC701B60192
:1035F0000E94E5128111E2C0AF89B88D8D919C9136
:103600001197E989FA898E2B9F2B8D939C932F8993
:10361000388D2E5F3F4F388F2F8B898D9A8D029674
:103620009A8F898FAB8DBC8D1496BC8FAB8F285C25
:10363000324009F0AECEED8DFE8D3496FE8FED8FCB
:10364000F3E02F16310409F07DCE00C120E030E018
:1036500040E553E4C701B6010E9474DF18160CF070
:10366000E8CEC12CD12CA0E5EA2EA3E4FA2EE1CEBF
:1036700020E030E047E453E4C501B4010E9474DF68
:1036800018160CF0F0CE812C912CE7E4AE2EE3E47A
:10369000BE2EE9CE20E030E040E553E4C301B201A4
:1036A0000E9474DF18160CF0F6CE412C512C60E508
:1036B000662E63E4762EEFCEAE014F5F5F4FC301FF
:1036C000B2010E94E512882309F4F1CE8091B2057F
:1036D000882341F1B701A60187EA91E00E94D781D2
:1036E00049855A856B857C8581EA91E00E94D78166
:1036F0004D815E816F81788587E991E00E94D78155
:1037000049815A816B817C8181E991E00E94D78156
:1037100069E28DE29EE00E9422136AE08DE29EE063
:103720000E94221351EBE52E52E0F52E8E010F5F21
:103730001F4F9E012B5F3F4FA701BE01675F7F4F69
:10374000CE010D964BDCB3CE20E030E040E553E4F3
:10375000C701B6010E9474DF18160CF00CCFC12C03
:10376000D12C30E5E32E33E4F32E05CF20E030E01A
:1037700047E453E46B897C898D899E890E9474DFBC
:1037800018160CF014CF80E090E0A7E4B3E48B8B24
:103790009C8BAD8BBE8B0BCF20E030E047E453E435
:1037A000C301B2010E9474DF18160CF018CF412C2F
:1037B000512C97E4692E93E4792E11CFAE014F5F1F
:1037C0005F4FC701B6010E94E512882309F414CFA8
:1037D0008091B205882341F1B701A6018DE691E001
:1037E0000E94D78149855A856B857C8587E691E063
:1037F0000E94D7814D815E816F8178858DE591E052
:103800000E94D78149815A816B817C8187E591E053
:103810000E94D78169E28DE29EE00E9422136AE055
:103820008DE29EE00E94221381EBE82E82E0F82ECA
:103830008E010F5F1F4F9E012B5F3F4FA701BE01FF
:10384000675F7F4FCE010D96C9DBD6CE89A1A396C7
:103850000FB6F894DEBF0FBECDBFDF91CF911F91A1
:103860000F91FF90EF90DF90CF90BF90AF909F901F
:103870008F907F906F905F904F903F902F90089522
:103880008F929F92AF92BF92CF92DF92EF92FF9270
:103890000FB6F894C090220ED090230EE090240E24
:1038A000F090250E0FBE88E8C80E83E1D81EE11CFB
:1038B000F11C8091A3029091A4024A970CF47EC05F
:1038C00063E685E292E00E9462A40E944E9D81E040
:1038D0008093160E8091A3029091A4028F369105D9
:1038E00014F08EE690E09093670D8093660D0E9431
:1038F0009D916091A3027091A402072E000C880B89
:10390000990B0E9413DE9B01AC0160916E0D7091CA
:103910006F0D8091700D9091710D0E9497DC4B019D
:103920005C0120E030E0A9010E9474DF18160CF061
:103930003BC020E030E040E450E4C501B4010E9407
:1039400074DF18160CF03AC00E94EDA68111A2C0D7
:103950000FB6F8948091220E9091230EA091240E20
:10396000B091250E0FBE8C199D09AE09BF09B7FD98
:1039700018C00FB6F894C090220ED090230EE0909D
:10398000240EF090250E0FBE88E8C80E83E1D81EE5
:10399000E11CF11C0E9467966AE08DE29EE00E94A5
:1039A00022130E940A44A5CF20E030E040E450EC0E
:1039B000C501B4010E9471DD87FDC6CF63E681E1D8
:1039C00092E00E9462A40E944E9D8091A10290917B
:1039D000A20290936B0D80936A0D80E00E944B9140
:1039E0002BC00FB6F8948091220E9091230EA091D7
:1039F000240EB091250E0FBE8C199D09AE09BF098A
:103A0000B7FD18C00FB6F894C090220ED090230EC8
:103A1000E090240EF090250E0FBE88E8C80E83E1DA
:103A2000D81EE11CF11C0E9467966AE08DE29EE0C0
:103A30000E9422130E940A446091A1027091A20286
:103A4000072E000C880B990B0E9413DE9B01AC0122
:103A50006091720D7091730D8091740D9091750D40
:103A60000E9497DC4B015C0120E030E0A9010E943C
:103A700074DF1816CCF420E030E040E450E4C501D7
:103A8000B4010E9474DF1816CCF40E94EDA68823BE
:103A900009F4A7CFFF90EF90DF90CF90BF90AF9049
:103AA0009F908F900C94EE1320E030E040E450ECB7
:103AB000C501B4010E9471DD87FDE7CF0E9480A49B
:103AC0000E944E9D80E0FF90EF90DF90CF90BF90DE
:103AD000AF909F908F900895CF92DF92EF92FF92D8
:103AE0006B017C0120E030E044EB53E4C701B601F8
:103AF0000E9474DF18165CF420E030E044EB53E4DD
:103B0000C701B6010E9497DC6B017C01EBCF20E07E
:103B100030E0A901C701B6010E9471DD87FF0BC02B
:103B200020E030E044EB53E4C701B6010E9498DC8A
:103B30006B017C01ECCFC701B601FF90EF90DF90E5
:103B4000CF9008952F923F924F925F926F927F9203
:103B50008F929F92AF92BF92CF92DF92EF92FF929D
:103B60000F931F93CF93DF93CDB7DEB7CE59D10913
:103B70000FB6F894DEBF0FBECDBFE4E1F4E0649170
:103B80008F010F5F1F4F662331F08DE29EE00E9490
:103B90002213F801F4CF41E061E081E00E946F2A36
:103BA0008111C6C680E090E0A0E8BFE38093B9022F
:103BB0009093BA02A093BB02B093BC028093B5026B
:103BC0009093B602A093B702B093B8028DEC9CEC30
:103BD000ACE4BEE38093B1029093B202A093B3022F
:103BE000B093B40280E090E0A0E2B1E48093AD0233
:103BF0009093AE02A093AF02B093B00284E690E03F
:103C00009093A4028093A30288EC90E09093A20288
:103C10008093A1021092A0028FE40E947113882366
:103C200019F00E947D1304C06AE979E989E99EE3ED
:103C3000CD57DF4F688379838A839B83C358D040F5
:103C400083E40E947113882341F00E94C413C35679
:103C5000DF4F8883CD59D04008C083E40E944213CF
:103C6000C356DF4F8883CD59D0408BE40E94711337
:103C7000882341F00E94C413C256DF4F8883CE5977
:103C8000D04008C08BE40E944213C256DF4F8883A5
:103C9000CE59D04082E40E9471138823E1F00E9443
:103CA0007D130E94E0DD7093A4026093A3026F5025
:103CB00071096E37710578F0E9EEF3E064918F01D8
:103CC0000F5F1F4F662309F433C68DE29EE00E940A
:103CD0002213F801F3CF8CE40E947113882361F161
:103CE0000E947D136B017C016093B1027093B2025C
:103CF0008093B3029093B40220E030E0A9010E94C7
:103D000074DF87FD0AC020E030E040E050E4C701E6
:103D1000B6010E9471DD18167CF4E1ECF3E06491C9
:103D20008F010F5F1F4F662309F402C68DE29EE0EC
:103D30000E942213F801F3CF81E50E9442138823E9
:103D400009F442C08091E0059091E105892B69F169
:103D50000E947D136B017C016093B5027093B602E3
:103D60008093B7029093B8022DEC3CEC4CE45DE3F9
:103D70000E9474DF87FD0AC020E030E040E751E494
:103D8000C701B6010E9471DD1816F4F4E0E9F3E012
:103D900064918F010F5F1F4F662309F4C9C58DE23F
:103DA0009EE00E942213F801F3CFE5E6F3E0649170
:103DB0008F010F5F1F4F662309F4BAC58DE29EE0A5
:103DC0000E942213F801F3CF83E50E947113882328
:103DD00029F10E947D134B015C012DEC3CEC4CEC75
:103DE0005DE30E9474DF87FD0AC020E030E040E818
:103DF0005FE3C501B4010E9471DD1816B4F4EEE36F
:103E0000F3E064918F010F5F1F4F662309F490C5A3
:103E10008DE29EE00E942213F801F3CF53E3852E3A
:103E2000982C53EBA52E5EE3B52E80E50E9442133D
:103E3000882309F43BC08091E0059091E105892B2E
:103E400021F48FEF8093A00231C08091A0028F5F98
:103E50008093A0020E947D136B017C016093AD02F0
:103E60007093AE028093AF029093B00220E030E0F6
:103E7000A9010E9474DF87FD0AC020E030E048EC11
:103E800051E4C701B6010E9471DD18167CF4E6E129
:103E9000F3E064918F010F5F1F4F662309F448C55B
:103EA0008DE29EE00E942213F801F3CF86E40E9487
:103EB0007113882329F10E947D136B017C0120E09E
:103EC00030E040E85FE30E9474DF87FD0AC020E035
:103ED00030E040E850E4C701B6010E9471DD1816D9
:103EE000ACF4EDEEF2E064918F010F5F1F4F66239B
:103EF00009F41EC58DE29EE00E942213F801F3CF63
:103F0000C12CD12C40EEE42E4FE3F42EA7019601F4
:103F1000C701B6010E94AFDF9B01AC0160E070E019
:103F200084E490E40E9478DD2091B9023091BA02D5
:103F30004091BB025091BC020E94AFDF2B013C01BB
:103F4000A5019401C501B4010E94AFDF9B01AC0142
:103F5000C701B6010E94AFDF2CEE31E548EB5DE30F
:103F60000E9478DD9B01AC01C301B2010E94AFDF6A
:103F70006093B9027093BA028093BB029093BC0223
:103F800088E40E9471138823E1F00E947D130E944F
:103F9000E0DD7093A2026093A102655A7109643753
:103FA000710578F0EFEBF2E064918F010F5F1F4F26
:103FB000662309F4BDC48DE29EE00E942213F8013D
:103FC000F3CF85E50E944213882311F10FB6F894D0
:103FD0008091220E9091230EA091240EB091250E77
:103FE0000FBE0E9431D48091E0059091E105892BAC
:103FF00019F00E947D1304C060E070E088E492E450
:104000006093BE027093BF028093C0029093C1027E
:1040100082E50E9471138823D9F00E94B413C95716
:10402000DF4F79836883C758D040CB011816190633
:10403000BCF0EBE8F2E064918F010F5F1F4F662345
:1040400009F476C48DE29EE00E942213F801F3CFBA
:10405000AAE0B0E0C957DF4FB983A883C758D04062
:1040600088E50E947113882369F00E947D132091D6
:10407000D0033091D1034091D2035091D3030E94D9
:1040800097DC08C06091A1057091A2058091A305FD
:104090009091A4056093A9027093AA028093AB0249
:1040A0009093AC0289E50E947113882369F00E9405
:1040B0007D132091D4033091D5034091D6035091C4
:1040C000D7030E9497DC08C06091A5057091A605F2
:1040D0008091A7059091A8056093A5027093A60210
:1040E0008093A7029093A8026091A9027091AA02FE
:1040F0008091AB029091AC0245EA52E00E94E51239
:1041000081110FC0E1E6F2E064918F010F5F1F4F54
:10411000662309F40DC48DE29EE00E942213F8018B
:10412000F3CF84E40E94421391E089270E94262B5A
:1041300020E030E040EA50E46091A9057091AA05C2
:104140008091AB059091AC050E9471DD87FF1EC088
:1041500019821A821B821C8280E090E0A0EAB0E4FF
:104160008DAB9EABAFABB8AFBE016F5F7F4FCE01E3
:10417000C5960E94682A0E94B68980E1E1E9F5E0CF
:10418000A1EAB5E001900D928A95E1F779DB811102
:104190004DC11092AD051092AE051092AF05109270
:1041A000B0056DEA75E083E090E00E945480809154
:1041B000A002882321F00E94C215811137C180E23C
:1041C000E2E0F3E0DF01982F1D929A95E9F7E2EE25
:1041D000F2E0DF01982F1D929A95E9F7E2ECF2E008
:1041E000DF011D928A95E9F70E9438138091B10290
:1041F0009091B202A091B302B091B402809399055C
:1042000090939A05A0939B05B0939C0519821A82FE
:104210001B821C829E012F5F3F4F49E955E065E9F3
:1042200075E081E995E00E941F149E012D573F4FD4
:1042300049E955E065E975E081E995E00E941F14C0
:1042400081E08093160E8E010F5F1F4F6E01B5E364
:10425000CB0ED11CE12CF12CB7010F2C000C880BDC
:10426000990B0E9413DE20E030E040EF51E40E9401
:10427000AFDF32DC2BED3FE049E450E40E94AFDFDA
:1042800020E030E044E353E40E9478DD4B015C0120
:104290000E9475DD20E030E040EA50E40E94AFDF8C
:1042A000F80161937193819391938F01C501B401DA
:1042B0000E9412E020E030E040EA50E40E94AFDFCC
:1042C000D6016D937D938D939D936D01BFEFEB1A96
:1042D000FB0AEDE0EE16F10409F0BECFC356DF4F46
:1042E000F881CD59D040FF2309F40EC165EA75E08D
:1042F00081EA95E00E948916AA962FAFAA97AB96FD
:104300003FAFAB97AC964FAFAC97AD965FAFAD9765
:10431000AE966FAFAE97AF967FAFAF97190127FDFF
:10432000F2C237FCF0C2E22E220FFF08F701EE0FB7
:10433000FF1FEE0FFF1FED50FA4F80819181A28188
:10434000B381CB56DF4F88839983AA83BB83C5593A
:10435000D040032D032C000C110BF801EE0FFF1FB2
:10436000EE0FFF1FE951FA4F80819181A281B38145
:10437000C756DF4F88839983AA83BB83C959D0402E
:10438000C158DF4F88839983AA83BB83CF57D0401E
:10439000AE0141585F4FCB56DF4F688179818A81EA
:1043A0009B81C559D0400E94E512882309F4ABC215
:1043B0008091B2058823A1F0B70188E492E00E94C1
:1043C0009A81B80182E492E00E949A8169E28DE2CA
:1043D0009EE00E9422136AE08DE29EE00E9422137A
:1043E000211097C0332009F4B4C092E03912BBC049
:1043F000412C512C3201812C912C94EBA92E92EC62
:10440000B92E2DEC3CEC4CEC5DE3C301B2010E94F3
:1044100097DC9B01AC01C501B4010E9471DD87FFEF
:104420006EC20E94DC13882309F4CCC06FEF86E3D0
:1044300092E00E9462A481E995E00E94621580E00A
:1044400090E0A0EAB0E48093990590939A05A09338
:104450009B05B0939C05E3961CAE1DAE1EAE1FAE31
:10446000E3979E0121593F4F49E955E065E975E021
:1044700081E995E00E941F148091A9029091AA02FF
:10448000A091AB02B091AC028093910590939205FC
:10449000A0939305B09394058091A5029091A602F4
:1044A000A091A702B091A8028093950590939605DC
:1044B000A0939705B0939805E3961CAE1DAE1EAE73
:1044C0001FAEE3979E0121593F4F49E955E065E949
:1044D00075E081E995E00E941F141092160EC256F5
:1044E000DF4FB881CE59D040B11122C21092670D72
:1044F0001092660D0E949D9110926B0D10926A0DA4
:1045000080E00E944B9114C265EA72E089EA92E071
:10451000F1CEA2E02A120BC0332091F1412C512C94
:1045200087E8682E83E4782E3A1237C00BC0332018
:10453000D9F1B2E0412C512C04EB602E03E4702E33
:104540003B123CC0812C912C14E3A12E13E4B12E1C
:1045500058CF412C512CB4EB6B2EB2E47B2E812C26
:10456000912C54014ECF412C512CF4EB6F2EF2E4E0
:104570007F2E812C912CA4EBAA2EA2ECBA2E41CF37
:10458000412C512C74E3672E73E4772E812C912CEF
:10459000E4EBAE2EE2E4BE2E34CF812C912C64EB02
:1045A000A62E62E4B62E2DCF412C512C54E3652E5D
:1045B00053E4752E812C912C540123CF812C912C06
:1045C00054011FCF20E030E040EF51E4C501B401B9
:1045D0000E9478DD0E94E0DD8B0177FF03C0045F5D
:1045E0001F4F06C06C3071051CF08B010C50110977
:1045F0007801EE0CFF1CEE0CFF1CE1E0F0E0EC0F8C
:10460000FD1FEE0EFF1ED7012D913D914D915C9146
:10461000CB56DF4F688179818A819B81C559D04013
:104620000E9498DCC757DF4F688379838A839B8316
:10463000C958D040F70124A935A946A957A9C7569A
:10464000DF4F688179818A819B81C959D0400E945E
:1046500098DCC357DF4F688379838A839B83CD5867
:10466000D0400F5F1F4F000F111F000F111F81E07F
:1046700090E08C0F9D1F080F191FD8012D913D91BF
:104680004D915C91CB56DF4F688179818A819B8106
:10469000C559D0400E9498DCCF56DF4F688379839C
:1046A0008A839B83C159D040F80124A935A946A922
:1046B00057A9C756DF4F688179818A819B81C95983
:1046C000D0400E9498DC6B017C0120E030E040E8A3
:1046D0005FE3C757DF4F688179818A819B81C95821
:1046E000D0400E9471DD87FD1DC020E030E040E534
:1046F00053E4C757DF4F688179818A819B81C9580C
:10470000D0400E9474DF1816CCF480E090E0A0E561
:10471000B3E4C757DF4F88839983AA83BB83C95803
:10472000D0400CC080E090E0A0E8BFE3C757DF4F67
:1047300088839983AA83BB83C958D040C757DF4F6A
:1047400088819981AA81BB81C958D040EF968CAFEE
:104750009DAFAEAFBFAFEF9720E030E040E85FE342
:10476000C357DF4F688179818A819B81CD58D040C2
:104770000E9471DD87FD1DC020E030E047E453E476
:10478000C357DF4F688179818A819B81CD58D040A2
:104790000E9474DF1816CCF480E090E0A7E4B3E444
:1047A000C357DF4F88839983AA83BB83CD58D040FA
:1047B0000CC080E090E0A0E8BFE3C357DF4F8883E0
:1047C0009983AA83BB83CD58D040C357DF4F8881DC
:1047D0009981AA81BB81CD58D040EB968CAF9DAF1B
:1047E000AEAFBFAFEB9720E030E040E85FE3CF56DD
:1047F000DF4F688179818A819B81C159D0400E94B5
:1048000071DD87FD1DC020E030E040E553E4CF5668
:10481000DF4F688179818A819B81C159D0400E9494
:1048200074DF1816CCF480E090E0A0E5B3E4CF5636
:10483000DF4F88839983AA83BB83C159D0400CC0C2
:1048400080E090E0A0E8BFE3CF56DF4F88839983F4
:10485000AA83BB83C159D040CF56DF4F888199814D
:10486000AA81BB81C159D040E7968CAF9DAFAEAF56
:10487000BFAFE79720E030E040E85FE3C701B60153
:104880000E9471DD87FD11C020E030E047E453E471
:10489000C701B6010E9474DF18166CF4C12CD12C2C
:1048A00097E4E92E93E4F92E06C0C12CD12C20E820
:1048B000E22E2FE3F22EE396CCAEDDAEEEAEFFAEEF
:1048C000E39781EBE82E82E0F82E8E0101591F4F0D
:1048D0009E012D583F4FA701BE0169587F4FCE0161
:1048E00085589F4F0E94EE1720E030E040EF51E4E2
:1048F000C501B4010E9498DC4B015C0182CD0E948D
:104900008219811193CDC957DF4FA881B981C7584A
:10491000D0401197C957DF4FB983A883C758D040FB
:10492000AB2B09F483CD27FC81CD37FED7CC7ECDD0
:10493000C256DF4F0FB6F894DEBF0FBECDBFDF917A
:10494000CF911F910F91FF90EF90DF90CF90BF908C
:10495000AF909F908F907F906F905F904F903F901F
:104960002F900895FB0101900020E9F73197AF01E6
:10497000461B570BDC01ED91FC910280F381E02D89
:1049800009940C948AD3FF920F931F93CF93DF93D4
:10499000F82E092F162FE3E1F8E06491EF0121963C
:1049A000662331F08DE29EE00E942213FE01F5CFD6
:1049B000EF2DF02F6491EF012196662331F08DE207
:1049C0009EE00E942213FE01F5CFE1E1F8E0649140
:1049D000EF012196662331F08DE29EE00E942213C2
:1049E000FE01F5CF412F50E060E070E08DE29EE0E7
:1049F0000E947DD36AE08DE29EE0DF91CF911F910E
:104A00000F91FF900C9422130FB6F8948091220E10
:104A10009091230EA091240EB091250E0FBE80938D
:104A2000B9039093BA03A093BB03B093BC0308955A
:104A300080E1E1E9F5E0A1EAB5E001900D928A9507
:104A4000E1F70895AC01485F5F4FBC016C5F7F4F99
:104A50000C9425734F925F926F927F92AF92BF92A8
:104A6000CF92DF92EF92FF92CF93DF93EB01FC01A5
:104A700060817181828193812CE3C22ED12CE12C43
:104A8000F12CA70196010E9431DCB62EA72ECA0197
:104A9000B901A70196010E9431DC6B017C01CA01BA
:104AA000B90128E130E040E050E00E9431DC2B0108
:104AB0003C01C9016DE671E00E940ADC61157105D7
:104AC000D9F0AF92BF92DF92CF925F924F929F93B5
:104AD0008F937F936F938FEC9AE09F938F93DF93E5
:104AE000CF930E9432E58DB79EB70E960FB6F8941D
:104AF0009EBF0FBE8DBF61C00097C9F0AF92BF923D
:104B0000DF92CF925F924F929F938F938FEB9AE0B9
:104B10009F938F93DF93CF930E9432E5EDB7FEB75B
:104B20003C960FB6F894FEBF0FBEEDBF46C04114D1
:104B3000510461047104B9F0AF92BF92DF92CF9239
:104B40005F924F9283EB9AE09F938F93DF93CF9383
:104B50000E9432E58DB79EB70A960FB6F8949EBFB5
:104B60000FBE8DBF2AC0C114D104E104F104A9F025
:104B7000AF92BF92DF92CF928BEA9AE09F938F938E
:104B8000DF93CF930E9432E5EDB7FEB738960FB6AC
:104B9000F894FEBF0FBEEDBF10C0AF92BF9287EA80
:104BA0009AE09F938F93DF93CF930E9432E50F900B
:104BB0000F900F900F900F900F90DF91CF91FF907B
:104BC000EF90DF90CF90BF90AF907F906F905F900D
:104BD0004F9008958091E0059091E105009731F0A4
:104BE0004AE050E060E070E00C945CE360E070E06C
:104BF000CB0108950E94B41397FD0CC00E94B4131A
:104C00006F3F71058105910509F034F40E94B413DA
:104C1000862F089580E008958FEF08950F931F93D6
:104C2000CF93DF93CDB7DEB72C970FB6F894DEBFE6
:104C30000FBECDBFE1EAF5E080859185A285B38501
:104C40004481558166817781008111812281338180
:104C500009871A872B873C874D835E836F8378870C
:104C600089839A83AB83BC83AE014F5F5F4FBE01E4
:104C70006B5F7F4FCE0109960E9425732DEA35E0C8
:104C8000AE014F5F5F4FBE016B5F7F4FCE01099654
:104C90000E94607F2C960FB6F894DEBF0FBECDBF8A
:104CA000DF91CF911F910F9108958F929F92BF92A4
:104CB000CF92DF92EF92FF920F931F93CF93DF93E8
:104CC000CDB7DEB764970FB6F894DEBF0FBECDBF89
:104CD000B02EC12ED22EF32E8C01000F111F000F0B
:104CE000111FC8018F559A4F4C01FC01108211828F
:104CF00012821382498B5A8B6B8B7C8B8FDF498995
:104D00005A896B897C89F401408351836283738360
:104D1000E090C10320E030E0A9016B2D7C2D8D2DAA
:104D20009F2D0E9471DD811108C0F801E857F14FF5
:104D300085919591A591B49104C08B2D9C2DAD2D9D
:104D4000BF2D8D879E87AF87B88B8091A9059091E5
:104D5000AA05A091AB05B091AC054091A505509175
:104D6000A6056091A7057091A8050091A105109175
:104D7000A2052091A3053091A40509871A872B87E6
:104D80003C874D835E836F83788789839A83AB8367
:104D9000BC83AE014F5F5F4FBE016B5F7F4FCE01A3
:104DA00009960E9425738E01035F1F4F2DEA35E09F
:104DB000AE014F5F5F4FBE016B5F7F4FCE01099623
:104DC0000E94367E0E94B6891092BA0564960FB68C
:104DD000F894DEBF0FBECDBFDF91CF911F910F9131
:104DE000FF90EF90DF90CF90BF909F908F900895AD
:104DF000CF93DF9300D0CDB7DEB720911F0E309157
:104E0000200ECE0101962115310529F489539E40CB
:104E10009A83898304C0821B930B9A838983898137
:104E20009A810F900F90DF91CF910895FF920F9389
:104E30001F93CF93DF93FC0120812B3319F1D09185
:104E40008205D430F8F4F62EBC01C09180050C2FF9
:104E500010E0F0E6CF9FC001112480509C4F0E94CB
:104E600003E5F801EA56FC4FF082CF5FC43018F436
:104E7000C093800502C010928005DF5FD093820549
:104E800081E001C080E0DF91CF911F910F91FF90F1
:104E90000895EF92FF921F93CF93DF937C01C6DFBB
:104EA000182F8823E1F0EDEEF2E16491EF012196F5
:104EB000662331F08DE29EE00E942213FE01F5CFC1
:104EC000B7018CE39EE00E94728162E28DE29EE077
:104ED0000E9422136AE08DE29EE00E942213812F3D
:104EE000DF91CF911F91FF90EF900895DF92EF92A5
:104EF000FF920F931F93CF93DF93CDB7DEB76E97DB
:104F00000FB6F894DEBF0FBECDBF6091FE03709167
:104F1000FF036115710549F14DE150E0CE010196A5
:104F20007C010E94B9E41E8EF7018F010E191F0942
:104F3000D190DD2019F09AE0D912F7CFF701E00FF8
:104F4000F11F108260E0C701A4DF882371F0DD202B
:104F5000A9F00F5F1F4F8091FE039091FF03080F90
:104F6000191F1093FF030093FE0381E02091FE03BD
:104F70003091FF03232B29F480E003C000E010E010
:104F8000F0CF6E960FB6F894DEBF0FBECDBFDF91A7
:104F9000CF911F910F91FF90EF90DF900895909324
:104FA000FF038093FE03A2CFEF92FF920F931F9314
:104FB000CF93DF937C0184E50E947113D82F88235F
:104FC00081F118DEC82F181644F5EDEEF2E1649178
:104FD0008F010F5F1F4F662331F08DE29EE00E942C
:104FE0002213F801F4CF6DE48DE29EE00E942213BB
:104FF000A70160E070E020E08DE29EE00E9421D3F6
:105000006C2FCC0F770B8EE19DE00E949A816AE0B5
:105010008DE29EE00E94221308C08093A603D0E098
:1050200004C08091C1038093A6038D2FDF91CF919F
:105030001F910F91FF90EF9008950F931F93CF93BF
:10504000DF93EC01CC0FDD1FCC0FDD1F8E01005371
:105050001C4FFE01E452FC4FDE01A851BC4F2D91C4
:105060003D914D915C9160817181828193810E941B
:1050700098DCF8016083718382839383FE01E45896
:10508000F14F85919591A591B491FE01EC53FC4FA0
:1050900080839183A283B383FE01E059F14F859110
:1050A0009591A591B491C95EDE4F88839983AA83B7
:1050B000BB83DF91CF911F910F9108954F925F9223
:1050C0006F927F928F929F92AF92BF92EF92FF92D8
:1050D0000F931F93CF93DF937C01FC01E75BF14FAC
:1050E0006491EC01CC0FDD1FCC0FDD1FFE01E85AEF
:1050F000F14F4590559065907490062E000C770BFB
:10510000880B990B0E9413DE4B015C0120E030E01C
:1051100040EC5FE3C301B2010E94AFDFA50194013F
:105120000E94AFDFAB01BC0100E010E09801C701B5
:10513000BCDDFE01E45BF14F259135914591549121
:10514000C501B4010E94AFDF4B015C0120E030E0FB
:10515000A9010E9471DD882309F44DC000E010E030
:105160009801B501A4017058C7019FDDF701EC5407
:10517000F34F649161111FC0EDEEF2E164913F01C4
:105180008FEF681A780A662331F08DE29EE00E9464
:105190002213F301F3CFE2E9FCE064913F018FEFCA
:1051A000681A780A662331F08DE29EE00E9422138D
:1051B000F301F3CF6AE0FE01E857F14F45905590B7
:1051C0006590749070E080E090E00E9413DE9B0197
:1051D000AC01C301B2010E9478DD2B013C01A501A5
:1051E0009401C501B4010E9498DCAB01BC0193019C
:1051F0008201C7015ADDF701E257FA4F81E080834F
:10520000F701E557FA4F8083FE01E851FC4F108209
:10521000118212821382C70110DFFE01EC59F14F97
:1052200085919591A591B4918E010F551A4FF80172
:1052300080839183A283B383F1DCCF56DA4FF801E8
:1052400080819181A281B38188839983AA83BB8362
:10525000DF91CF911F910F91FF90EF90BF90AF9092
:105260009F908F907F906F905F904F900895EF92F6
:105270000F931F93CF93DF93CDB7DEB72C970FB665
:10528000F894DEBF0FBECDBFE090C103E1EAF5E0C8
:1052900080859185A285B38544815581668177811A
:1052A000008111812281338109871A872B873C87EE
:1052B0004D835E836F83788789839A83AB83BC83B6
:1052C000AE014F5F5F4FBE016B5F7F4FCE0109960E
:1052D0000E94257305E211E02DEA35E0AE014F5F33
:1052E0005F4FBE016B5F7F4FCE0109960E94367EF5
:1052F0002C960FB6F894DEBF0FBECDBFDF91CF91D5
:105300001F910F91EF9008952F923F924F925F92CD
:105310006F927F928F929F92AF92BF92CF92DF92C5
:10532000EF92FF920F931F93CF93DF9300D000D0A3
:10533000CDB7DEB71C017A8369835C834B83890117
:105340008090250190902601A0902701B09028011F
:10535000F901C080D180E280F38020E030E0A90133
:10536000C701B6010E9471DD811106C0E0E9FEE0CF
:10537000C590D590E590F490EB81FC81208131813E
:10538000428153816091A9057091AA058091AB0576
:105390009091AC050E9471DD87FF17C0C092250176
:1053A000D0922601E0922701F0922801EB81FC8146
:1053B00080819181A281B3818093A9059093AA05F0
:1053C000A093AB05B093AC0552DFF801408051804B
:1053D0006280738020E030E0A901C301B2010E9425
:1053E00071DD811107C085E5482E542C85E0682EBB
:1053F00083E4782E40922501509226016092270185
:1054000070922801F10180819181A281B381809302
:10541000A1059093A205A093A305B093A405E981EB
:10542000FA8180819181A281B3818093A5059093B7
:10543000A605A093A705B093A80519DFEB81FC8111
:1054400020813181428153816091A9057091AA0523
:105450008091AB059091AC050E9474DF1816BCF4E6
:10546000C0922501D0922601E0922701F0922801F6
:10547000EB81FC8180819181A281B3818093A90518
:105480009093AA05A093AB05B093AC05F0DE0E9403
:10549000B6898092250190922601A0922701B092B0
:1054A00028010F900F900F900F90DF91CF911F91D7
:1054B0000F91FF90EF90DF90CF90BF90AF909F90B3
:1054C0008F907F906F905F904F903F902F900895B6
:1054D0009B01AC0165EA75E081EA95E015CFEF929A
:1054E000FF921F93CF93DF93882329F0D0918E05ED
:1054F00081E0D82701C0D0E0662329F010918F0504
:1055000081E0182701C010E0442329F0C0919005E4
:1055100081E0C82701C0C0E0D11105C0111103C04E
:10552000CC2309F48CC0EDEEF2E164917F018FEFA2
:10553000E81AF80A662331F08DE29EE00E942213F9
:10554000F701F3CFE8E1FDE064917F019FEFE91AF5
:10555000F90A662331F08DE29EE00E942213F701E2
:10556000F3CFDD2379F0E6E1FDE064917F018FEF79
:10557000E81AF80A662331F08DE29EE00E942213B9
:10558000F701F3CF112379F0E4E1FDE064917F01AD
:105590009FEFE91AF90A662331F08DE29EE00E943E
:1055A0002213F701F3CFC11103C0EAE0FDE00FC001
:1055B000E2E1FDE064917F018FEFE81AF80A6623CB
:1055C000A1F38DE29EE00E942213F701F3CF6491D4
:1055D0007F019FEFE91AF90A662331F08DE29EE020
:1055E0000E942213F701F3CFC11103C041E352E03F
:1055F00002C04AEC51E0111103C021E332E002C0C5
:105600002CEC31E0D11103C081E392E002C08EECBA
:1056100091E05F934F933F932F939F938F9388EFE6
:105620009CE09F938F931F920E9484A48DB79EB796
:1056300009960FB6F8949EBF0FBE8DBFC1E08C2FA8
:10564000DF91CF911F91FF90EF90089590916B069D
:105650008917B1F0811111C049EA55E065EA75E09A
:1056600081EA95E00E94257380E080936B06882391
:1056700039F081EA95E00C94667380912706F5CFA6
:10568000089580E0E3DF80912706882321F00E94BF
:10569000246B1092270608954F925F926F927F922B
:1056A000AF92BF92CF92DF92EF92FF920F931F9330
:1056B000CF93DF9387E0A82E82E0B82E91E9E92E00
:1056C00095E0F92E01EA15E020EDC22E23E0D22E5E
:1056D000C0E0D0E0F50181915F010E944213882370
:1056E00099F10E947D13FE01EC50FC4F20812111A5
:1056F00004C02091C003222331F0F80120813181C0
:105700004281538103C020E030E0A9010E9498DC6F
:10571000C330D10571F0F60120813181428153817E
:105720002B013C01C301B2010E9497DCE62F272F19
:1057300002C0E62F272F4E2F522FBC01F7014083C6
:105740005183628373830AC0F80180819181A281B1
:10575000B381F70180839183A283B3832196F4E020
:10576000EF0EF11C0C5F1F4F84E0C80ED11CC4303B
:10577000D10509F0AFCF86E40E9471138823C9F0E8
:105780000E947D1320E030E0A9010E9474DF18160A
:1057900084F40E947D1320E030E040E752E40E9450
:1057A00078DD609325017093260180932701909303
:1057B0002801DF91CF911F910F91FF90EF90DF9023
:1057C000CF90BF90AF907F906F905F904F90089573
:1057D000CF92DF92EF92FF920F931F93CF93DF93BD
:1057E0000FB6F894C090220ED090230EE090240EB5
:1057F000F090250E0FBE80910E01882309F472C02F
:105800008091940390919503009709F46BC04091A7
:1058100090035091910360919203709193039701CB
:105820008601041B150B260B370B37FD6EC083302A
:10583000910531F134F401970CF454C0EDEEF2E12E
:1058400006C0049709F04EC0EDEEF2E133C064915A
:10585000EF012196662331F08DE29EE00E94221333
:10586000FE01F5CFE6EEFCE06491EF0121966623A0
:1058700009F438C08DE29EE00E942213FE01F4CFAD
:10588000EDEEF2E16491EF012196662331F08DE2B5
:105890009EE00E942213FE01F5CFEFECFCE0649144
:1058A000EF0121966623F1F08DE29EE00E94221323
:1058B000FE01F5CF6491EF012196662331F08DE270
:1058C0009EE00E942213FE01F5CFE7EBFCE064911D
:1058D000EF012196662331F08DE29EE00E942213B3
:1058E000FE01F5CF20910E0130E0A8EEB3E00E945A
:1058F00078DCC60ED71EE81EF91EC0929003D09227
:105900009103E0929203F0929303DF91CF911F9164
:105910000F91FF90EF90DF90CF900895CF93DF939A
:10592000E3E8FCE06491EF012196662331F08DE21B
:105930009EE00E942213FE01F5CFDF91CF910895E2
:105940008F929F92AF92BF92CF92DF92EF92FF928F
:105950000F931F93CF93DF93E5E7FCE06491EF0192
:105960002196662331F08DE29EE00E942213FE0113
:10597000F5CFEAE6FCE06491EF012196662331F071
:105980008DE29EE00E942213FE01F5CF4091230696
:1059900050912406609125067091260625E030E09E
:1059A0008DE29EE00E94C124E7E5FCE06491EF01F6
:1059B0002196662331F08DE29EE00E942213FE01C3
:1059C000F5CFC12CD12C7601C0E060E28DE29EE0E3
:1059D0000E942213CF5FC830C1F7B701A6018DE244
:1059E0009EE00E947DD38FEFC81AD80AE80AF80A11
:1059F00083E0C816D104E104F10431F76AE08DE2D6
:105A00009EE00E9422130FEF15E0C12CD12C7601ED
:105A100060E28DE29EE00E942213B701A6018DE2B2
:105A20009EE00E947DD3C0E0D0E060E28DE29EE087
:105A30000E942213F801EC0FFD1F80809180A2804C
:105A4000B380A5019401C501B4010E945DE08111FC
:105A500017C020E030E0A901C501B4010E9474DF45
:105A600087FD05C06BE28DE29EE00E94221325E0D7
:105A700030E0B501A4018DE29EE00E94C1240CC07B
:105A8000B12C60E28DE29EE00E942213B39488E084
:105A9000B81611F06DE3F6CF2C96C432D10529F675
:105AA0006AE08DE29EE00E9422138FEFC81AD80AA6
:105AB000E80AF80A0C5F1F4F83E0C816D104E1041E
:105AC000F10409F0A5CF6AE08DE29EE0DF91CF916D
:105AD0001F910F91FF90EF90DF90CF90BF90AF900C
